{
  "contractName": "EpochContract",
  "abi": [
    {
      "constant": true,
      "inputs": [],
      "name": "miraCoins",
      "outputs": [
        {
          "name": "",
          "type": "uint256"
        }
      ],
      "payable": false,
      "stateMutability": "view",
      "type": "function"
    },
    {
      "constant": true,
      "inputs": [],
      "name": "epochEndTime",
      "outputs": [
        {
          "name": "",
          "type": "uint256"
        }
      ],
      "payable": false,
      "stateMutability": "view",
      "type": "function"
    },
    {
      "constant": true,
      "inputs": [],
      "name": "nodeQuantity",
      "outputs": [
        {
          "name": "",
          "type": "uint256"
        }
      ],
      "payable": false,
      "stateMutability": "view",
      "type": "function"
    },
    {
      "inputs": [
        {
          "name": "_nodesHolderAddress",
          "type": "address"
        }
      ],
      "payable": false,
      "stateMutability": "nonpayable",
      "type": "constructor"
    },
    {
      "payable": true,
      "stateMutability": "payable",
      "type": "fallback"
    },
    {
      "constant": false,
      "inputs": [],
      "name": "getFee",
      "outputs": [],
      "payable": true,
      "stateMutability": "payable",
      "type": "function"
    },
    {
      "constant": true,
      "inputs": [],
      "name": "getFeeAmount",
      "outputs": [
        {
          "name": "",
          "type": "uint256"
        }
      ],
      "payable": false,
      "stateMutability": "view",
      "type": "function"
    },
    {
      "constant": false,
      "inputs": [
        {
          "name": "nodeId",
          "type": "string"
        }
      ],
      "name": "withdrawReward",
      "outputs": [
        {
          "name": "",
          "type": "bool"
        }
      ],
      "payable": false,
      "stateMutability": "nonpayable",
      "type": "function"
    },
    {
      "constant": false,
      "inputs": [
        {
          "name": "_nodeQuantity",
          "type": "uint256"
        }
      ],
      "name": "setNodeQuantity",
      "outputs": [],
      "payable": false,
      "stateMutability": "nonpayable",
      "type": "function"
    }
  ],
  "bytecode": "0x60806040526000600255600060035534801561001a57600080fd5b5060405160208061059683398101806040528101908080519060200190929190505050806000806101000a81548173ffffffffffffffffffffffffffffffffffffffff021916908373ffffffffffffffffffffffffffffffffffffffff16021790555080600160006101000a81548173ffffffffffffffffffffffffffffffffffffffff021916908373ffffffffffffffffffffffffffffffffffffffff16021790555042600481905550506104c1806100d56000396000f300608060405260043610610083576000357c0100000000000000000000000000000000000000000000000000000000900463ffffffff1680632dc282481461009557806380a030f4146100c05780638be10d6a14610141578063bf5c98221461016c578063ced72f8714610197578063e0e0ae79146101a1578063ebc38a47146101cc575b34600260008282540192505081905550005b3480156100a157600080fd5b506100aa6101f9565b6040518082815260200191505060405180910390f35b3480156100cc57600080fd5b50610127600480360381019080803590602001908201803590602001908080601f01602080910402602001604051908101604052809392919081815260200183838082843782019150505050505091929192905050506101ff565b604051808215151515815260200191505060405180910390f35b34801561014d57600080fd5b50610156610407565b6040518082815260200191505060405180910390f35b34801561017857600080fd5b5061018161040d565b6040518082815260200191505060405180910390f35b61019f610417565b005b3480156101ad57600080fd5b506101b6610429565b6040518082815260200191505060405180910390f35b3480156101d857600080fd5b506101f76004803603810190808035906020019092919050505061042f565b005b60025481565b6000806000809054906101000a900473ffffffffffffffffffffffffffffffffffffffff1673ffffffffffffffffffffffffffffffffffffffff1663acf5935a84336040518363ffffffff167c010000000000000000000000000000000000000000000000000000000002815260040180806020018373ffffffffffffffffffffffffffffffffffffffff1673ffffffffffffffffffffffffffffffffffffffff168152602001828103825284818151815260200191508051906020019080838360005b838110156102de5780820151818401526020810190506102c3565b50505050905090810190601f16801561030b5780820380516001836020036101000a031916815260200191505b509350505050602060405180830381600087803b15801561032b57600080fd5b505af115801561033f573d6000803e3d6000fd5b505050506040513d602081101561035557600080fd5b8101908080519060200190929190505050801561037457506004544210155b156103fc5760035460025481151561038857fe5b0490503373ffffffffffffffffffffffffffffffffffffffff166108fc829081150290604051600060405180830381858888f193505050501580156103d1573d6000803e3d6000fd5b5080600260008282540392505081905550600160036000828254039250508190555060019150610401565b600091505b50919050565b60045481565b6000600254905090565b34600260008282540192505081905550565b60035481565b600160009054906101000a900473ffffffffffffffffffffffffffffffffffffffff1673ffffffffffffffffffffffffffffffffffffffff163373ffffffffffffffffffffffffffffffffffffffff1614151561048b57600080fd5b80600381905550505600a165627a7a72305820ca7bf6939ce27b77d7f5fec514592ca99b3878e034b15f8c9eb96ccba52e82580029",
  "source": "pragma solidity ^0.4.23;\n\nimport './NodesHolder.sol';\n\ncontract EpochContract{\n    \n    NodesHolder nodesHolder;\n    address nodesHolderAddress;\n    \n    uint public miraCoins = 0;\n    uint public nodeQuantity = 0;\n    uint public epochEndTime;\n    \n    constructor (address _nodesHolderAddress) public{\n        nodesHolder = NodesHolder(_nodesHolderAddress);\n        nodesHolderAddress = _nodesHolderAddress;\n        epochEndTime = now;// + 12 hours; // UNCOMMENT THIS BEFORE RELEASE\n    }\n    \n    function () payable public{\n        miraCoins += msg.value;\n    }\n    \n    function getFee() payable public{\n        miraCoins += msg.value;\n    }\n    \n    function getFeeAmount() public view returns(uint){\n        return miraCoins;\n    }\n    \n    function withdrawReward(string nodeId) public returns(bool){\n        if(nodesHolder.withdrawEpochReward(nodeId, msg.sender) && now >= epochEndTime){\n            uint rewardValue = miraCoins/nodeQuantity;\n            msg.sender.transfer(rewardValue);\n            miraCoins -= rewardValue;\n            nodeQuantity -= 1;\n            return true;\n        }\n        return false;\n    }\n    \n    function setNodeQuantity(uint _nodeQuantity) public{\n        require(msg.sender == nodesHolderAddress);\n        nodeQuantity = _nodeQuantity;\n    }\n}\n",
  "sourcePath": "/home/thplease/Desktop/NodeMoney/contracts/EpochContract.sol",
  "compiler": {
    "name": "solc",
    "version": "0.4.23+commit.124ca40d.Emscripten.clang"
  },
  "schemaVersion": "2.0.0",
  "updatedAt": "2018-05-30T05:58:54.019Z"
}