{
  "contractName": "NodesHolder",
  "abi": [
    {
      "inputs": [],
      "payable": false,
      "stateMutability": "nonpayable",
      "type": "constructor"
    },
    {
      "constant": false,
      "inputs": [
        {
          "name": "newValue",
          "type": "uint256"
        }
      ],
      "name": "setNodeFreezeValue",
      "outputs": [],
      "payable": false,
      "stateMutability": "nonpayable",
      "type": "function"
    },
    {
      "constant": true,
      "inputs": [
        {
          "name": "nodeId",
          "type": "string"
        }
      ],
      "name": "getNodeBalance",
      "outputs": [
        {
          "name": "",
          "type": "uint256"
        }
      ],
      "payable": false,
      "stateMutability": "view",
      "type": "function"
    },
    {
      "constant": true,
      "inputs": [],
      "name": "getCurrentEpoch",
      "outputs": [
        {
          "name": "",
          "type": "address"
        }
      ],
      "payable": false,
      "stateMutability": "view",
      "type": "function"
    },
    {
      "constant": true,
      "inputs": [
        {
          "name": "nodeId",
          "type": "string"
        }
      ],
      "name": "getNotCashedEpochs",
      "outputs": [
        {
          "name": "",
          "type": "address[]"
        }
      ],
      "payable": false,
      "stateMutability": "view",
      "type": "function"
    },
    {
      "constant": false,
      "inputs": [],
      "name": "redirectFee",
      "outputs": [],
      "payable": true,
      "stateMutability": "payable",
      "type": "function"
    },
    {
      "constant": false,
      "inputs": [
        {
          "name": "nodeId",
          "type": "string"
        }
      ],
      "name": "topUpNodeBalance",
      "outputs": [],
      "payable": true,
      "stateMutability": "payable",
      "type": "function"
    },
    {
      "constant": false,
      "inputs": [
        {
          "name": "nodeId",
          "type": "string"
        },
        {
          "name": "amount",
          "type": "uint256"
        }
      ],
      "name": "witdrawFromNode",
      "outputs": [],
      "payable": false,
      "stateMutability": "nonpayable",
      "type": "function"
    },
    {
      "constant": false,
      "inputs": [],
      "name": "startEpoch",
      "outputs": [
        {
          "name": "",
          "type": "uint256"
        }
      ],
      "payable": false,
      "stateMutability": "nonpayable",
      "type": "function"
    },
    {
      "constant": false,
      "inputs": [
        {
          "name": "nodeId",
          "type": "string"
        },
        {
          "name": "sender",
          "type": "address"
        }
      ],
      "name": "withdrawEpochReward",
      "outputs": [
        {
          "name": "",
          "type": "bool"
        }
      ],
      "payable": false,
      "stateMutability": "nonpayable",
      "type": "function"
    }
  ],
  "bytecode": "0x60806040526000600155600160025534801561001a57600080fd5b5033600360006101000a81548173ffffffffffffffffffffffffffffffffffffffff021916908373ffffffffffffffffffffffffffffffffffffffff160217905550611a2f8061006b6000396000f300608060405260043610610099576000357c0100000000000000000000000000000000000000000000000000000000900463ffffffff16806306cc59b41461009e578063407748cc146101115780634eff74db146101cf5780635f9dbf54146101d95780636e79614b146102565780636f6e3f02146102b2578063a2c8b177146102df578063acf5935a1461030a578063b97dd9e2146103ab575b600080fd5b3480156100aa57600080fd5b5061010f600480360381019080803590602001908201803590602001908080601f016020809104026020016040519081016040528093929190818152602001838380828437820191505050505050919291929080359060200190929190505050610402565b005b34801561011d57600080fd5b50610178600480360381019080803590602001908201803590602001908080601f01602080910402602001604051908101604052809392919081815260200183838082843782019150505050505091929192905050506105f9565b6040518080602001828103825283818151815260200191508051906020019060200280838360005b838110156101bb5780820151818401526020810190506101a0565b505050509050019250505060405180910390f35b6101d7610788565b005b3480156101e557600080fd5b50610240600480360381019080803590602001908201803590602001908080601f0160208091040260200160405190810160405280939291908181526020018383808284378201915050505050509192919290505050610828565b6040518082815260200191505060405180910390f35b6102b0600480360381019080803590602001908201803590602001908080601f0160208091040260200160405190810160405280939291908181526020018383808284378201915050505050509192919290505050610923565b005b3480156102be57600080fd5b506102dd60048036038101908080359060200190929190505050610bcc565b005b3480156102eb57600080fd5b506102f4610c32565b6040518082815260200191505060405180910390f35b34801561031657600080fd5b50610391600480360381019080803590602001908201803590602001908080601f0160208091040260200160405190810160405280939291908181526020018383808284378201915050505050509192919290803573ffffffffffffffffffffffffffffffffffffffff169060200190929190505050610f5d565b604051808215151515815260200191505060405180910390f35b3480156103b757600080fd5b506103c0611315565b604051808273ffffffffffffffffffffffffffffffffffffffff1673ffffffffffffffffffffffffffffffffffffffff16815260200191505060405180910390f35b6000826040516020018082805190602001908083835b60208310151561043d5780518252602082019150602081019050602083039250610418565b6001836020036101000a0380198251168184511680821785525050505050509050019150506040516020818303038152906040526040518082805190602001908083835b6020831015156104a65780518252602082019150602081019050602083039250610481565b6001836020036101000a038019825116818451168082178552505050505050905001915050604051809103902090508160076000836000191660001916815260200190815260200160002060000154101580156105035750600082115b151561050e57600080fd5b3373ffffffffffffffffffffffffffffffffffffffff1660076000836000191660001916815260200190815260200160002060010160009054906101000a900473ffffffffffffffffffffffffffffffffffffffff1673ffffffffffffffffffffffffffffffffffffffff1614156105f45781600760008360001916600019168152602001908152602001600020600001600082825403925050819055503373ffffffffffffffffffffffffffffffffffffffff166108fc839081150290604051600060405180830381858888f193505050501580156105f2573d6000803e3d6000fd5b505b505050565b6060600080835111151561060c57600080fd5b826040516020018082805190602001908083835b6020831015156106455780518252602082019150602081019050602083039250610620565b6001836020036101000a0380198251168184511680821785525050505050509050019150506040516020818303038152906040526040518082805190602001908083835b6020831015156106ae5780518252602082019150602081019050602083039250610689565b6001836020036101000a0380198251168184511680821785525050505050509050019150506040518091039020905060076000826000191660001916815260200190815260200160002060020180548060200260200160405190810160405280929190818152602001828054801561077b57602002820191906000526020600020905b8160009054906101000a900473ffffffffffffffffffffffffffffffffffffffff1673ffffffffffffffffffffffffffffffffffffffff1681526020019060010190808311610731575b5050505050915050919050565b6000809054906101000a900473ffffffffffffffffffffffffffffffffffffffff1673ffffffffffffffffffffffffffffffffffffffff1663ced72f87346040518263ffffffff167c01000000000000000000000000000000000000000000000000000000000281526004016000604051808303818588803b15801561080d57600080fd5b505af1158015610821573d6000803e3d6000fd5b5050505050565b600080826040516020018082805190602001908083835b602083101515610864578051825260208201915060208101905060208303925061083f565b6001836020036101000a0380198251168184511680821785525050505050509050019150506040516020818303038152906040526040518082805190602001908083835b6020831015156108cd57805182526020820191506020810190506020830392506108a8565b6001836020036101000a0380198251168184511680821785525050505050509050019150506040518091039020905060076000826000191660001916815260200190815260200160002060000154915050919050565b600080825111151561093457600080fd5b816040516020018082805190602001908083835b60208310151561096d5780518252602082019150602081019050602083039250610948565b6001836020036101000a0380198251168184511680821785525050505050509050019150506040516020818303038152906040526040518082805190602001908083835b6020831015156109d657805182526020820191506020810190506020830392506109b1565b6001836020036101000a03801982511681845116808217855250505050505090500191505060405180910390209050600073ffffffffffffffffffffffffffffffffffffffff1660076000836000191660001916815260200190815260200160002060010160009054906101000a900473ffffffffffffffffffffffffffffffffffffffff1673ffffffffffffffffffffffffffffffffffffffff161415610b9b576060604051908101604052803481526020013373ffffffffffffffffffffffffffffffffffffffff1681526020016000604051908082528060200260200182016040528015610ad65781602001602082028038833980820191505090505b508152506007600083600019166000191681526020019081526020016000206000820151816000015560208201518160010160006101000a81548173ffffffffffffffffffffffffffffffffffffffff021916908373ffffffffffffffffffffffffffffffffffffffff1602179055506040820151816002019080519060200190610b6292919061133f565b50905050806006600060015481526020019081526020016000208160001916905550600160008154809291906001019190505550610bc8565b34600760008360001916600019168152602001908152602001600020600001600082825401925050819055505b5050565b3373ffffffffffffffffffffffffffffffffffffffff16600360009054906101000a900473ffffffffffffffffffffffffffffffffffffffff1673ffffffffffffffffffffffffffffffffffffffff16141515610c2857600080fd5b8060028190555050565b60008060003373ffffffffffffffffffffffffffffffffffffffff16600360009054906101000a900473ffffffffffffffffffffffffffffffffffffffff1673ffffffffffffffffffffffffffffffffffffffff16141515610c9357600080fd5b6000915030610ca06113c9565b808273ffffffffffffffffffffffffffffffffffffffff1673ffffffffffffffffffffffffffffffffffffffff168152602001915050604051809103906000f080158015610cf2573d6000803e3d6000fd5b50600460006101000a81548173ffffffffffffffffffffffffffffffffffffffff021916908373ffffffffffffffffffffffffffffffffffffffff160217905550600460009054906101000a900473ffffffffffffffffffffffffffffffffffffffff166000806101000a81548173ffffffffffffffffffffffffffffffffffffffff021916908373ffffffffffffffffffffffffffffffffffffffff160217905550600090505b600154811015610ead576002546007600060066000858152602001908152602001600020546000191660001916815260200190815260200160002060000154101515610ea05760076000600660008481526020019081526020016000205460001916600019168152602001908152602001600020600201600460009054906101000a900473ffffffffffffffffffffffffffffffffffffffff1690806001815401808255809150509060018203906000526020600020016000909192909190916101000a81548173ffffffffffffffffffffffffffffffffffffffff021916908373ffffffffffffffffffffffffffffffffffffffff1602179055505081806001019250505b8080600101915050610d9a565b6000809054906101000a900473ffffffffffffffffffffffffffffffffffffffff1673ffffffffffffffffffffffffffffffffffffffff1663ebc38a47836040518263ffffffff167c010000000000000000000000000000000000000000000000000000000002815260040180828152602001915050600060405180830381600087803b158015610f3d57600080fd5b505af1158015610f51573d6000803e3d6000fd5b50505050819250505090565b600080600080600080876040516020018082805190602001908083835b602083101515610f9f5780518252602082019150602081019050602083039250610f7a565b6001836020036101000a0380198251168184511680821785525050505050509050019150506040516020818303038152906040526040518082805190602001908083835b6020831015156110085780518252602082019150602081019050602083039250610fe3565b6001836020036101000a0380198251168184511680821785525050505050509050019150506040518091039020945060009350600091505b60076000866000191660001916815260200190815260200160002060020180549050821015611107576007600086600019166000191681526020019081526020016000206002018281548110151561109457fe5b9060005260206000200160009054906101000a900473ffffffffffffffffffffffffffffffffffffffff1673ffffffffffffffffffffffffffffffffffffffff163373ffffffffffffffffffffffffffffffffffffffff1614156110fa57600193508192505b8180600101925050611040565b8673ffffffffffffffffffffffffffffffffffffffff1660076000876000191660001916815260200190815260200160002060010160009054906101000a900473ffffffffffffffffffffffffffffffffffffffff1673ffffffffffffffffffffffffffffffffffffffff1614801561117d5750835b1561130557600160076000876000191660001916815260200190815260200160002060020180549050039050600760008660001916600019168152602001908152602001600020600201818154811015156111d457fe5b9060005260206000200160009054906101000a900473ffffffffffffffffffffffffffffffffffffffff166007600087600019166000191681526020019081526020016000206002018481548110151561122a57fe5b9060005260206000200160006101000a81548173ffffffffffffffffffffffffffffffffffffffff021916908373ffffffffffffffffffffffffffffffffffffffff1602179055506007600086600019166000191681526020019081526020016000206002018181548110151561129d57fe5b9060005260206000200160006101000a81549073ffffffffffffffffffffffffffffffffffffffff02191690556007600086600019166000191681526020019081526020016000206002018054809190600190036112fb91906113d9565b506001955061130a565b600095505b505050505092915050565b6000600460009054906101000a900473ffffffffffffffffffffffffffffffffffffffff16905090565b8280548282559060005260206000209081019282156113b8579160200282015b828111156113b75782518260006101000a81548173ffffffffffffffffffffffffffffffffffffffff021916908373ffffffffffffffffffffffffffffffffffffffff1602179055509160200191906001019061135f565b5b5090506113c59190611405565b5090565b6040516105968061146e83390190565b815481835581811115611400578183600052602060002091820191016113ff9190611448565b5b505050565b61144591905b8082111561144157600081816101000a81549073ffffffffffffffffffffffffffffffffffffffff02191690555060010161140b565b5090565b90565b61146a91905b8082111561146657600081600090555060010161144e565b5090565b90560060806040526000600255600060035534801561001a57600080fd5b5060405160208061059683398101806040528101908080519060200190929190505050806000806101000a81548173ffffffffffffffffffffffffffffffffffffffff021916908373ffffffffffffffffffffffffffffffffffffffff16021790555080600160006101000a81548173ffffffffffffffffffffffffffffffffffffffff021916908373ffffffffffffffffffffffffffffffffffffffff16021790555042600481905550506104c1806100d56000396000f300608060405260043610610083576000357c0100000000000000000000000000000000000000000000000000000000900463ffffffff1680632dc282481461009557806380a030f4146100c05780638be10d6a14610141578063bf5c98221461016c578063ced72f8714610197578063e0e0ae79146101a1578063ebc38a47146101cc575b34600260008282540192505081905550005b3480156100a157600080fd5b506100aa6101f9565b6040518082815260200191505060405180910390f35b3480156100cc57600080fd5b50610127600480360381019080803590602001908201803590602001908080601f01602080910402602001604051908101604052809392919081815260200183838082843782019150505050505091929192905050506101ff565b604051808215151515815260200191505060405180910390f35b34801561014d57600080fd5b50610156610407565b6040518082815260200191505060405180910390f35b34801561017857600080fd5b5061018161040d565b6040518082815260200191505060405180910390f35b61019f610417565b005b3480156101ad57600080fd5b506101b6610429565b6040518082815260200191505060405180910390f35b3480156101d857600080fd5b506101f76004803603810190808035906020019092919050505061042f565b005b60025481565b6000806000809054906101000a900473ffffffffffffffffffffffffffffffffffffffff1673ffffffffffffffffffffffffffffffffffffffff1663acf5935a84336040518363ffffffff167c010000000000000000000000000000000000000000000000000000000002815260040180806020018373ffffffffffffffffffffffffffffffffffffffff1673ffffffffffffffffffffffffffffffffffffffff168152602001828103825284818151815260200191508051906020019080838360005b838110156102de5780820151818401526020810190506102c3565b50505050905090810190601f16801561030b5780820380516001836020036101000a031916815260200191505b509350505050602060405180830381600087803b15801561032b57600080fd5b505af115801561033f573d6000803e3d6000fd5b505050506040513d602081101561035557600080fd5b8101908080519060200190929190505050801561037457506004544210155b156103fc5760035460025481151561038857fe5b0490503373ffffffffffffffffffffffffffffffffffffffff166108fc829081150290604051600060405180830381858888f193505050501580156103d1573d6000803e3d6000fd5b5080600260008282540392505081905550600160036000828254039250508190555060019150610401565b600091505b50919050565b60045481565b6000600254905090565b34600260008282540192505081905550565b60035481565b600160009054906101000a900473ffffffffffffffffffffffffffffffffffffffff1673ffffffffffffffffffffffffffffffffffffffff163373ffffffffffffffffffffffffffffffffffffffff1614151561048b57600080fd5b80600381905550505600a165627a7a72305820ca7bf6939ce27b77d7f5fec514592ca99b3878e034b15f8c9eb96ccba52e82580029a165627a7a72305820ea6389c5622669c8024acc0f6c2a646ab41484bf3673eb7be562416999fc9cd10029",
  "source": "pragma solidity ^0.4.23;\n\nimport './EpochContract.sol';\n\ncontract NodesHolder{\n\n    struct Node {\n        uint balance;\n        address owner;\n        address[] notCashedEpochs;\n    }\n    \n    EpochContract currentEpochInstance;\n    \n    uint nodesCount = 0;\n    uint private nodeFreezeValue = 1;\n    \n    address private owner;\n    address currentEpochAddress;\n    address lastEpochAddress;\n    \n    mapping (uint => bytes32) nodesNumerator;\n    mapping (bytes32 => Node) nodes;\n    \n    constructor() public{\n        owner =  msg.sender;\n    }\n    \n    modifier onlyOwner {\n        require(owner == msg.sender);\n        _;\n    }\n    \n    function setNodeFreezeValue (uint newValue) public onlyOwner{\n        nodeFreezeValue = newValue;\n    }\n    \n    function getNodeBalance(string nodeId) public view returns(uint){\n        bytes32 encodedNodeId = keccak256(abi.encodePacked(nodeId));\n        return nodes[encodedNodeId].balance;\n    }\n    \n    function getCurrentEpoch() public view returns(address){\n        return currentEpochAddress;\n    }\n    \n    function getNotCashedEpochs(string nodeId) public view returns(address[]){\n        require(bytes(nodeId).length > 0);\n        bytes32 encodedNodeId = keccak256(abi.encodePacked(nodeId));\n        return nodes[encodedNodeId].notCashedEpochs;\n    }\n    \n    function redirectFee() payable public{\n        currentEpochInstance.getFee.value(msg.value)();\n    }\n    \n    function topUpNodeBalance(string nodeId) payable public{\n        require(bytes(nodeId).length > 0);\n        bytes32 encodedNodeId = keccak256(abi.encodePacked(nodeId));\n        if(nodes[encodedNodeId].owner == address(0)){\n            nodes[encodedNodeId] = Node({\n                balance: msg.value,\n                owner: msg.sender,\n                notCashedEpochs: new address[](0)\n            });\n            nodesNumerator[nodesCount] = encodedNodeId;\n            nodesCount++;\n        } else{\n            nodes[encodedNodeId].balance += msg.value;\n        }\n    }\n\n    function witdrawFromNode(string nodeId, uint amount) public{\n        bytes32 encodedNodeId = keccak256(abi.encodePacked(nodeId));\n        require(nodes[encodedNodeId].balance >= amount && amount > 0);\n        if(nodes[encodedNodeId].owner == msg.sender){\n            nodes[encodedNodeId].balance -= amount;\n            msg.sender.transfer(amount);\n        }\n    }\n    \n    function startEpoch() public onlyOwner returns(uint){\n        uint nodeQuantity = 0;\n        currentEpochAddress = new EpochContract(address(this));\n        currentEpochInstance = EpochContract(currentEpochAddress);\n        for(uint i = 0; i < nodesCount; i++){\n            if(nodes[nodesNumerator[i]].balance >= nodeFreezeValue){\n                nodes[nodesNumerator[i]].notCashedEpochs.push(currentEpochAddress);\n                nodeQuantity++;\n            }\n        }\n        currentEpochInstance.setNodeQuantity(nodeQuantity);\n        return nodeQuantity;\n    }\n    \n    function withdrawEpochReward(string nodeId, address sender) public returns(bool){\n        bytes32 encodedNodeId = keccak256(abi.encodePacked(nodeId));\n        bool isEpochNotCashed = false;\n        uint notCashedIndex;\n        \n        for(uint i = 0; i < nodes[encodedNodeId].notCashedEpochs.length; i++){\n            if (msg.sender == nodes[encodedNodeId].notCashedEpochs[i]){\n                isEpochNotCashed = true;\n                notCashedIndex = i;\n            }\n        }\n        \n        if(nodes[encodedNodeId].owner == sender && isEpochNotCashed){\n            uint notCashedLastEl = nodes[encodedNodeId].notCashedEpochs.length-1;\n            nodes[encodedNodeId].notCashedEpochs[notCashedIndex] = nodes[encodedNodeId].notCashedEpochs[notCashedLastEl];\n            delete (nodes[encodedNodeId].notCashedEpochs[notCashedLastEl]);\n            nodes[encodedNodeId].notCashedEpochs.length--;\n            return true;\n        }\n        \n        return false;\n    }\n    \n}\n",
  "sourcePath": "/home/thplease/Desktop/NodeMoney/contracts/NodesHolder.sol",
  "compiler": {
    "name": "solc",
    "version": "0.4.23+commit.124ca40d.Emscripten.clang"
  },
  "schemaVersion": "2.0.0",
  "updatedAt": "2018-05-30T05:59:30.318Z"
}